{
  "contractName": "FruitToken",
  "abi": [
    {
      "inputs": [],
      "stateMutability": "nonpayable",
      "type": "constructor"
    },
    {
      "anonymous": false,
      "inputs": [
        {
          "indexed": true,
          "internalType": "address",
          "name": "owner",
          "type": "address"
        },
        {
          "indexed": true,
          "internalType": "address",
          "name": "spender",
          "type": "address"
        },
        {
          "indexed": false,
          "internalType": "uint256",
          "name": "value",
          "type": "uint256"
        }
      ],
      "name": "Approval",
      "type": "event"
    },
    {
      "anonymous": false,
      "inputs": [
        {
          "indexed": true,
          "internalType": "address",
          "name": "from",
          "type": "address"
        },
        {
          "indexed": true,
          "internalType": "address",
          "name": "to",
          "type": "address"
        },
        {
          "indexed": false,
          "internalType": "uint256",
          "name": "value",
          "type": "uint256"
        }
      ],
      "name": "Transfer",
      "type": "event"
    },
    {
      "inputs": [],
      "name": "admin",
      "outputs": [
        {
          "internalType": "address",
          "name": "",
          "type": "address"
        }
      ],
      "stateMutability": "view",
      "type": "function",
      "constant": true
    },
    {
      "inputs": [
        {
          "internalType": "address",
          "name": "owner",
          "type": "address"
        },
        {
          "internalType": "address",
          "name": "spender",
          "type": "address"
        }
      ],
      "name": "allowance",
      "outputs": [
        {
          "internalType": "uint256",
          "name": "",
          "type": "uint256"
        }
      ],
      "stateMutability": "view",
      "type": "function",
      "constant": true
    },
    {
      "inputs": [
        {
          "internalType": "address",
          "name": "spender",
          "type": "address"
        },
        {
          "internalType": "uint256",
          "name": "amount",
          "type": "uint256"
        }
      ],
      "name": "approve",
      "outputs": [
        {
          "internalType": "bool",
          "name": "",
          "type": "bool"
        }
      ],
      "stateMutability": "nonpayable",
      "type": "function"
    },
    {
      "inputs": [
        {
          "internalType": "address",
          "name": "account",
          "type": "address"
        }
      ],
      "name": "balanceOf",
      "outputs": [
        {
          "internalType": "uint256",
          "name": "",
          "type": "uint256"
        }
      ],
      "stateMutability": "view",
      "type": "function",
      "constant": true
    },
    {
      "inputs": [],
      "name": "decimals",
      "outputs": [
        {
          "internalType": "uint8",
          "name": "",
          "type": "uint8"
        }
      ],
      "stateMutability": "view",
      "type": "function",
      "constant": true
    },
    {
      "inputs": [
        {
          "internalType": "address",
          "name": "spender",
          "type": "address"
        },
        {
          "internalType": "uint256",
          "name": "substractedValue",
          "type": "uint256"
        }
      ],
      "name": "decreaseAllowance",
      "outputs": [
        {
          "internalType": "bool",
          "name": "",
          "type": "bool"
        }
      ],
      "stateMutability": "nonpayable",
      "type": "function"
    },
    {
      "inputs": [
        {
          "internalType": "address",
          "name": "spender",
          "type": "address"
        },
        {
          "internalType": "uint256",
          "name": "addValue",
          "type": "uint256"
        }
      ],
      "name": "increaseAllowance",
      "outputs": [
        {
          "internalType": "bool",
          "name": "",
          "type": "bool"
        }
      ],
      "stateMutability": "nonpayable",
      "type": "function"
    },
    {
      "inputs": [],
      "name": "name",
      "outputs": [
        {
          "internalType": "string",
          "name": "",
          "type": "string"
        }
      ],
      "stateMutability": "view",
      "type": "function",
      "constant": true
    },
    {
      "inputs": [],
      "name": "symbol",
      "outputs": [
        {
          "internalType": "string",
          "name": "",
          "type": "string"
        }
      ],
      "stateMutability": "view",
      "type": "function",
      "constant": true
    },
    {
      "inputs": [],
      "name": "totalSupply",
      "outputs": [
        {
          "internalType": "uint256",
          "name": "",
          "type": "uint256"
        }
      ],
      "stateMutability": "view",
      "type": "function",
      "constant": true
    },
    {
      "inputs": [
        {
          "internalType": "address",
          "name": "recipient",
          "type": "address"
        },
        {
          "internalType": "uint256",
          "name": "amount",
          "type": "uint256"
        }
      ],
      "name": "transfer",
      "outputs": [
        {
          "internalType": "bool",
          "name": "",
          "type": "bool"
        }
      ],
      "stateMutability": "nonpayable",
      "type": "function"
    },
    {
      "inputs": [
        {
          "internalType": "address",
          "name": "sender",
          "type": "address"
        },
        {
          "internalType": "address",
          "name": "recipient",
          "type": "address"
        },
        {
          "internalType": "uint256",
          "name": "amount",
          "type": "uint256"
        }
      ],
      "name": "transferFrom",
      "outputs": [
        {
          "internalType": "bool",
          "name": "",
          "type": "bool"
        }
      ],
      "stateMutability": "nonpayable",
      "type": "function"
    },
    {
      "inputs": [
        {
          "internalType": "address",
          "name": "to",
          "type": "address"
        },
        {
          "internalType": "uint256",
          "name": "amount",
          "type": "uint256"
        }
      ],
      "name": "mint",
      "outputs": [],
      "stateMutability": "nonpayable",
      "type": "function"
    }
  ],
  "bytecode": "0x60806040523480156200001157600080fd5b506040518060400160405280600b81526020017f467275697420546f6b656e0000000000000000000000000000000000000000008152506040518060400160405280600581526020017f465255495400000000000000000000000000000000000000000000000000000081525081600290805190602001906200009692919062000298565b508060039080519060200190620000af92919062000298565b505050620000ce3369d3c21bcecceda10000006200011560201b60201c565b33600560006101000a81548173ffffffffffffffffffffffffffffffffffffffff021916908373ffffffffffffffffffffffffffffffffffffffff160217905550620004e6565b600073ffffffffffffffffffffffffffffffffffffffff168273ffffffffffffffffffffffffffffffffffffffff16141562000188576040517f08c379a00000000000000000000000000000000000000000000000000000000081526004016200017f906200039b565b60405180910390fd5b6200019c600083836200028e60201b60201c565b8060046000828254620001b09190620003eb565b92505081905550806000808473ffffffffffffffffffffffffffffffffffffffff1673ffffffffffffffffffffffffffffffffffffffff1681526020019081526020016000206000828254620002079190620003eb565b925050819055508173ffffffffffffffffffffffffffffffffffffffff16600073ffffffffffffffffffffffffffffffffffffffff167fddf252ad1be2c89b69c2b068fc378daa952ba7f163c4a11628f55a4df523b3ef836040516200026e9190620003bd565b60405180910390a36200028a600083836200029360201b60201c565b5050565b505050565b505050565b828054620002a69062000452565b90600052602060002090601f016020900481019282620002ca576000855562000316565b82601f10620002e557805160ff191683800117855562000316565b8280016001018555821562000316579182015b8281111562000315578251825591602001919060010190620002f8565b5b50905062000325919062000329565b5090565b5b80821115620003445760008160009055506001016200032a565b5090565b600062000357601f83620003da565b91507f45524332303a206d696e7420746f20746865207a65726f2061646472657373006000830152602082019050919050565b620003958162000448565b82525050565b60006020820190508181036000830152620003b68162000348565b9050919050565b6000602082019050620003d460008301846200038a565b92915050565b600082825260208201905092915050565b6000620003f88262000448565b9150620004058362000448565b9250827fffffffffffffffffffffffffffffffffffffffffffffffffffffffffffffffff038211156200043d576200043c62000488565b5b828201905092915050565b6000819050919050565b600060028204905060018216806200046b57607f821691505b60208210811415620004825762000481620004b7565b5b50919050565b7f4e487b7100000000000000000000000000000000000000000000000000000000600052601160045260246000fd5b7f4e487b7100000000000000000000000000000000000000000000000000000000600052602260045260246000fd5b61173280620004f66000396000f3fe608060405234801561001057600080fd5b50600436106100cf5760003560e01c806340c10f191161008c578063a457c2d711610066578063a457c2d714610228578063a9059cbb14610258578063dd62ed3e14610288578063f851a440146102b8576100cf565b806340c10f19146101be57806370a08231146101da57806395d89b411461020a576100cf565b806306fdde03146100d4578063095ea7b3146100f257806318160ddd1461012257806323b872dd14610140578063313ce56714610170578063395093511461018e575b600080fd5b6100dc6102d6565b6040516100e991906113bb565b60405180910390f35b61010c60048036038101906101079190610f8a565b610368565b60405161011991906113a0565b60405180910390f35b61012a610386565b60405161013791906114fd565b60405180910390f35b61015a60048036038101906101559190610f3b565b610390565b60405161016791906113a0565b60405180910390f35b610178610488565b6040516101859190611518565b60405180910390f35b6101a860048036038101906101a39190610f8a565b610491565b6040516101b591906113a0565b60405180910390f35b6101d860048036038101906101d39190610f8a565b61053d565b005b6101f460048036038101906101ef9190610ed6565b6105db565b60405161020191906114fd565b60405180910390f35b610212610623565b60405161021f91906113bb565b60405180910390f35b610242600480360381019061023d9190610f8a565b6106b5565b60405161024f91906113a0565b60405180910390f35b610272600480360381019061026d9190610f8a565b610823565b60405161027f91906113a0565b60405180910390f35b6102a2600480360381019061029d9190610eff565b610841565b6040516102af91906114fd565b60405180910390f35b6102c06108c8565b6040516102cd9190611385565b60405180910390f35b6060600280546102e59061162d565b80601f01602080910402602001604051908101604052809291908181526020018280546103119061162d565b801561035e5780601f106103335761010080835404028352916020019161035e565b820191906000526020600020905b81548152906001019060200180831161034157829003601f168201915b5050505050905090565b600061037c6103756108ee565b84846108f6565b6001905092915050565b6000600454905090565b600061039d848484610ac1565b6000600160008673ffffffffffffffffffffffffffffffffffffffff1673ffffffffffffffffffffffffffffffffffffffff16815260200190815260200160002060006103e86108ee565b73ffffffffffffffffffffffffffffffffffffffff1673ffffffffffffffffffffffffffffffffffffffff16815260200190815260200160002054905082811015610468576040517f08c379a000000000000000000000000000000000000000000000000000000000815260040161045f906114dd565b60405180910390fd5b61047c856104746108ee565b8584036108f6565b60019150509392505050565b60006012905090565b600061053361049e6108ee565b8484600160006104ac6108ee565b73ffffffffffffffffffffffffffffffffffffffff1673ffffffffffffffffffffffffffffffffffffffff16815260200190815260200160002060008873ffffffffffffffffffffffffffffffffffffffff1673ffffffffffffffffffffffffffffffffffffffff1681526020019081526020016000205461052e919061154f565b6108f6565b6001905092915050565b600560009054906101000a900473ffffffffffffffffffffffffffffffffffffffff1673ffffffffffffffffffffffffffffffffffffffff163373ffffffffffffffffffffffffffffffffffffffff16146105cd576040517f08c379a00000000000000000000000000000000000000000000000000000000081526004016105c49061143d565b60405180910390fd5b6105d78282610d42565b5050565b60008060008373ffffffffffffffffffffffffffffffffffffffff1673ffffffffffffffffffffffffffffffffffffffff168152602001908152602001600020549050919050565b6060600380546106329061162d565b80601f016020809104026020016040519081016040528092919081815260200182805461065e9061162d565b80156106ab5780601f10610680576101008083540402835291602001916106ab565b820191906000526020600020905b81548152906001019060200180831161068e57829003601f168201915b5050505050905090565b600080600160006106c46108ee565b73ffffffffffffffffffffffffffffffffffffffff1673ffffffffffffffffffffffffffffffffffffffff16815260200190815260200160002060008573ffffffffffffffffffffffffffffffffffffffff1673ffffffffffffffffffffffffffffffffffffffff16815260200190815260200160002054905082811015610781576040517f08c379a00000000000000000000000000000000000000000000000000000000081526004016107789061149d565b60405180910390fd5b61081861078c6108ee565b85856001600061079a6108ee565b73ffffffffffffffffffffffffffffffffffffffff1673ffffffffffffffffffffffffffffffffffffffff16815260200190815260200160002060008973ffffffffffffffffffffffffffffffffffffffff1673ffffffffffffffffffffffffffffffffffffffff16815260200190815260200160002054036108f6565b600191505092915050565b60006108376108306108ee565b8484610ac1565b6001905092915050565b6000600160008473ffffffffffffffffffffffffffffffffffffffff1673ffffffffffffffffffffffffffffffffffffffff16815260200190815260200160002060008373ffffffffffffffffffffffffffffffffffffffff1673ffffffffffffffffffffffffffffffffffffffff16815260200190815260200160002054905092915050565b600560009054906101000a900473ffffffffffffffffffffffffffffffffffffffff1681565b600033905090565b600073ffffffffffffffffffffffffffffffffffffffff168373ffffffffffffffffffffffffffffffffffffffff161415610966576040517f08c379a000000000000000000000000000000000000000000000000000000000815260040161095d9061147d565b60405180910390fd5b600073ffffffffffffffffffffffffffffffffffffffff168273ffffffffffffffffffffffffffffffffffffffff1614156109d6576040517f08c379a00000000000000000000000000000000000000000000000000000000081526004016109cd906113fd565b60405180910390fd5b80600160008573ffffffffffffffffffffffffffffffffffffffff1673ffffffffffffffffffffffffffffffffffffffff16815260200190815260200160002060008473ffffffffffffffffffffffffffffffffffffffff1673ffffffffffffffffffffffffffffffffffffffff168152602001908152602001600020819055508173ffffffffffffffffffffffffffffffffffffffff168373ffffffffffffffffffffffffffffffffffffffff167f8c5be1e5ebec7d5bd14f71427d1e84f3dd0314c0f7b2291e5b200ac8c7c3b92583604051610ab491906114fd565b60405180910390a3505050565b600073ffffffffffffffffffffffffffffffffffffffff168373ffffffffffffffffffffffffffffffffffffffff161415610b31576040517f08c379a0000000000000000000000000000000000000000000000000000000008152600401610b289061145d565b60405180910390fd5b600073ffffffffffffffffffffffffffffffffffffffff168273ffffffffffffffffffffffffffffffffffffffff161415610ba1576040517f08c379a0000000000000000000000000000000000000000000000000000000008152600401610b98906113dd565b60405180910390fd5b610bac838383610ea2565b60008060008573ffffffffffffffffffffffffffffffffffffffff1673ffffffffffffffffffffffffffffffffffffffff16815260200190815260200160002054905081811015610c32576040517f08c379a0000000000000000000000000000000000000000000000000000000008152600401610c299061141d565b60405180910390fd5b8181036000808673ffffffffffffffffffffffffffffffffffffffff1673ffffffffffffffffffffffffffffffffffffffff16815260200190815260200160002081905550816000808573ffffffffffffffffffffffffffffffffffffffff1673ffffffffffffffffffffffffffffffffffffffff1681526020019081526020016000206000828254610cc5919061154f565b925050819055508273ffffffffffffffffffffffffffffffffffffffff168473ffffffffffffffffffffffffffffffffffffffff167fddf252ad1be2c89b69c2b068fc378daa952ba7f163c4a11628f55a4df523b3ef84604051610d2991906114fd565b60405180910390a3610d3c848484610ea7565b50505050565b600073ffffffffffffffffffffffffffffffffffffffff168273ffffffffffffffffffffffffffffffffffffffff161415610db2576040517f08c379a0000000000000000000000000000000000000000000000000000000008152600401610da9906114bd565b60405180910390fd5b610dbe60008383610ea2565b8060046000828254610dd0919061154f565b92505081905550806000808473ffffffffffffffffffffffffffffffffffffffff1673ffffffffffffffffffffffffffffffffffffffff1681526020019081526020016000206000828254610e25919061154f565b925050819055508173ffffffffffffffffffffffffffffffffffffffff16600073ffffffffffffffffffffffffffffffffffffffff167fddf252ad1be2c89b69c2b068fc378daa952ba7f163c4a11628f55a4df523b3ef83604051610e8a91906114fd565b60405180910390a3610e9e60008383610ea7565b5050565b505050565b505050565b600081359050610ebb816116ce565b92915050565b600081359050610ed0816116e5565b92915050565b600060208284031215610ee857600080fd5b6000610ef684828501610eac565b91505092915050565b60008060408385031215610f1257600080fd5b6000610f2085828601610eac565b9250506020610f3185828601610eac565b9150509250929050565b600080600060608486031215610f5057600080fd5b6000610f5e86828701610eac565b9350506020610f6f86828701610eac565b9250506040610f8086828701610ec1565b9150509250925092565b60008060408385031215610f9d57600080fd5b6000610fab85828601610eac565b9250506020610fbc85828601610ec1565b9150509250929050565b610fcf816115a5565b82525050565b610fde816115b7565b82525050565b6000610fef82611533565b610ff9818561153e565b93506110098185602086016115fa565b611012816116bd565b840191505092915050565b600061102a60238361153e565b91507f45524332303a207472616e7366657220746f20746865207a65726f206164647260008301527f65737300000000000000000000000000000000000000000000000000000000006020830152604082019050919050565b600061109060228361153e565b91507f45524332303a20617070726f766520746f20746865207a65726f20616464726560008301527f73730000000000000000000000000000000000000000000000000000000000006020830152604082019050919050565b60006110f660268361153e565b91507f45524332303a207472616e7366657220616d6f756e742065786365656473206260008301527f616c616e636500000000000000000000000000000000000000000000000000006020830152604082019050919050565b600061115c60148361153e565b91507f4f6e6c792061646d696e2063616e20646f2069740000000000000000000000006000830152602082019050919050565b600061119c60258361153e565b91507f45524332303a207472616e736665722066726f6d20746865207a65726f20616460008301527f64726573730000000000000000000000000000000000000000000000000000006020830152604082019050919050565b600061120260248361153e565b91507f45524332303a20617070726f76652066726f6d20746865207a65726f2061646460008301527f72657373000000000000000000000000000000000000000000000000000000006020830152604082019050919050565b600061126860258361153e565b91507f45524332303a2064656372656173656420616c6c6f77616e63652062656c6f7760008301527f207a65726f0000000000000000000000000000000000000000000000000000006020830152604082019050919050565b60006112ce601f8361153e565b91507f45524332303a206d696e7420746f20746865207a65726f2061646472657373006000830152602082019050919050565b600061130e60288361153e565b91507f45524332303a207472616e7366657220616d6f756e742065786365646473206160008301527f6c6c6f77616e63650000000000000000000000000000000000000000000000006020830152604082019050919050565b611370816115e3565b82525050565b61137f816115ed565b82525050565b600060208201905061139a6000830184610fc6565b92915050565b60006020820190506113b56000830184610fd5565b92915050565b600060208201905081810360008301526113d58184610fe4565b905092915050565b600060208201905081810360008301526113f68161101d565b9050919050565b6000602082019050818103600083015261141681611083565b9050919050565b60006020820190508181036000830152611436816110e9565b9050919050565b600060208201905081810360008301526114568161114f565b9050919050565b600060208201905081810360008301526114768161118f565b9050919050565b60006020820190508181036000830152611496816111f5565b9050919050565b600060208201905081810360008301526114b68161125b565b9050919050565b600060208201905081810360008301526114d6816112c1565b9050919050565b600060208201905081810360008301526114f681611301565b9050919050565b60006020820190506115126000830184611367565b92915050565b600060208201905061152d6000830184611376565b92915050565b600081519050919050565b600082825260208201905092915050565b600061155a826115e3565b9150611565836115e3565b9250827fffffffffffffffffffffffffffffffffffffffffffffffffffffffffffffffff0382111561159a5761159961165f565b5b828201905092915050565b60006115b0826115c3565b9050919050565b60008115159050919050565b600073ffffffffffffffffffffffffffffffffffffffff82169050919050565b6000819050919050565b600060ff82169050919050565b60005b838110156116185780820151818401526020810190506115fd565b83811115611627576000848401525b50505050565b6000600282049050600182168061164557607f821691505b602082108114156116595761165861168e565b5b50919050565b7f4e487b7100000000000000000000000000000000000000000000000000000000600052601160045260246000fd5b7f4e487b7100000000000000000000000000000000000000000000000000000000600052602260045260246000fd5b6000601f19601f8301169050919050565b6116d7816115a5565b81146116e257600080fd5b50565b6116ee816115e3565b81146116f957600080fd5b5056fea26469706673582212201c71fbbb672e7509f7feaf3e444d7b9e5824fb142d3977f5897efb2ee26d589064736f6c63430008000033",
  "immutableReferences": {},
  "source": "// SPDX-License-Identifier: MIT\r\n\r\npragma solidity ^0.8.0;\r\n\r\nimport \"./extensions/ERC20.sol\";\r\n\r\ncontract FruitToken is ERC20 {\r\n    address public admin; \r\n\r\n    constructor() ERC20(\"Fruit Token\", \"FRUIT\") {\r\n        _mint(msg.sender, 1000000 * 10 ** 18);\r\n        admin = msg.sender;\r\n    }\r\n\r\n    function mint(address to, uint amount) external {\r\n        require(msg.sender == admin, \"Only admin can do it\");\r\n        _mint(to, amount);\r\n    }\r\n\r\n}",
  "sourcePath": "C:\\Users\\quang\\Documents\\GitHub\\yield_farming_app\\contracts\\FruitToken.sol",
  "compiler": {
    "name": "solc",
    "version": "0.8.0+commit.c7dfd78e.Emscripten.clang"
  },
  "schemaVersion": "3.4.2",
  "updatedAt": "2021-08-20T11:30:55.449Z",
  "networkType": "ethereum",
  "devdoc": {
    "kind": "dev",
    "methods": {},
    "version": 1
  },
  "userdoc": {
    "kind": "user",
    "methods": {},
    "version": 1
  }
}