{
  "contractName": "YieldFarm",
  "abi": [
    {
      "inputs": [
        {
          "internalType": "contract FruitToken",
          "name": "_fruitToken",
          "type": "address"
        },
        {
          "internalType": "contract SeedToken",
          "name": "_seedToken",
          "type": "address"
        }
      ],
      "stateMutability": "nonpayable",
      "type": "constructor"
    },
    {
      "inputs": [],
      "name": "fruitToken",
      "outputs": [
        {
          "internalType": "contract FruitToken",
          "name": "",
          "type": "address"
        }
      ],
      "stateMutability": "view",
      "type": "function",
      "constant": true
    },
    {
      "inputs": [
        {
          "internalType": "address",
          "name": "",
          "type": "address"
        }
      ],
      "name": "hasStaked",
      "outputs": [
        {
          "internalType": "bool",
          "name": "",
          "type": "bool"
        }
      ],
      "stateMutability": "view",
      "type": "function",
      "constant": true
    },
    {
      "inputs": [
        {
          "internalType": "address",
          "name": "",
          "type": "address"
        }
      ],
      "name": "isStaking",
      "outputs": [
        {
          "internalType": "bool",
          "name": "",
          "type": "bool"
        }
      ],
      "stateMutability": "view",
      "type": "function",
      "constant": true
    },
    {
      "inputs": [],
      "name": "name",
      "outputs": [
        {
          "internalType": "string",
          "name": "",
          "type": "string"
        }
      ],
      "stateMutability": "view",
      "type": "function",
      "constant": true
    },
    {
      "inputs": [],
      "name": "owner",
      "outputs": [
        {
          "internalType": "address",
          "name": "",
          "type": "address"
        }
      ],
      "stateMutability": "view",
      "type": "function",
      "constant": true
    },
    {
      "inputs": [],
      "name": "seedToken",
      "outputs": [
        {
          "internalType": "contract SeedToken",
          "name": "",
          "type": "address"
        }
      ],
      "stateMutability": "view",
      "type": "function",
      "constant": true
    },
    {
      "inputs": [
        {
          "internalType": "uint256",
          "name": "",
          "type": "uint256"
        }
      ],
      "name": "stakers",
      "outputs": [
        {
          "internalType": "address",
          "name": "",
          "type": "address"
        }
      ],
      "stateMutability": "view",
      "type": "function",
      "constant": true
    },
    {
      "inputs": [
        {
          "internalType": "address",
          "name": "",
          "type": "address"
        }
      ],
      "name": "stakingBalance",
      "outputs": [
        {
          "internalType": "uint256",
          "name": "",
          "type": "uint256"
        }
      ],
      "stateMutability": "view",
      "type": "function",
      "constant": true
    },
    {
      "inputs": [
        {
          "internalType": "uint256",
          "name": "_amount",
          "type": "uint256"
        }
      ],
      "name": "stakeTokens",
      "outputs": [],
      "stateMutability": "nonpayable",
      "type": "function"
    },
    {
      "inputs": [],
      "name": "unstakeTokens",
      "outputs": [],
      "stateMutability": "nonpayable",
      "type": "function"
    },
    {
      "inputs": [],
      "name": "issueTokens",
      "outputs": [],
      "stateMutability": "nonpayable",
      "type": "function"
    }
  ],
  "bytecode": "0x60806040526040518060400160405280600a81526020017f5969656c64204661726d00000000000000000000000000000000000000000000815250600090805190602001906200005192919062000150565b503480156200005f57600080fd5b50604051620014743803806200147483398181016040528101906200008591906200022e565b81600260006101000a81548173ffffffffffffffffffffffffffffffffffffffff021916908373ffffffffffffffffffffffffffffffffffffffff16021790555080600360006101000a81548173ffffffffffffffffffffffffffffffffffffffff021916908373ffffffffffffffffffffffffffffffffffffffff16021790555033600160006101000a81548173ffffffffffffffffffffffffffffffffffffffff021916908373ffffffffffffffffffffffffffffffffffffffff160217905550505062000364565b8280546200015e90620002cb565b90600052602060002090601f016020900481019282620001825760008555620001ce565b82601f106200019d57805160ff1916838001178555620001ce565b82800160010185558215620001ce579182015b82811115620001cd578251825591602001919060010190620001b0565b5b509050620001dd9190620001e1565b5090565b5b80821115620001fc576000816000905550600101620001e2565b5090565b600081519050620002118162000330565b92915050565b60008151905062000228816200034a565b92915050565b600080604083850312156200024257600080fd5b6000620002528582860162000200565b9250506020620002658582860162000217565b9150509250929050565b60006200027c82620002ab565b9050919050565b600062000290826200026f565b9050919050565b6000620002a4826200026f565b9050919050565b600073ffffffffffffffffffffffffffffffffffffffff82169050919050565b60006002820490506001821680620002e457607f821691505b60208210811415620002fb57620002fa62000301565b5b50919050565b7f4e487b7100000000000000000000000000000000000000000000000000000000600052602260045260246000fd5b6200033b8162000283565b81146200034757600080fd5b50565b620003558162000297565b81146200036157600080fd5b50565b61110080620003746000396000f3fe608060405234801561001057600080fd5b50600436106100c6576000357c0100000000000000000000000000000000000000000000000000000000900480636f49712b1161008e5780636f49712b1461015f5780637547c7a31461018f5780638da5cb5b146101ab578063a5ce413b146101c9578063c93c8f34146101d3578063fd5e6dd114610203576100c6565b806306fdde03146100cb578063311f8483146100e957806345bc78ab1461010757806360ab585214610137578063680a9a1914610141575b600080fd5b6100d3610233565b6040516100e09190610dc9565b60405180910390f35b6100f16102c1565b6040516100fe9190610dae565b60405180910390f35b610121600480360381019061011c9190610b3e565b6102e7565b60405161012e9190610e4b565b60405180910390f35b61013f6102ff565b005b61014961053a565b6040516101569190610d93565b60405180910390f35b61017960048036038101906101749190610b3e565b610560565b6040516101869190610d78565b60405180910390f35b6101a960048036038101906101a49190610b90565b610580565b005b6101b3610887565b6040516101c09190610cfd565b60405180910390f35b6101d16108ad565b005b6101ed60048036038101906101e89190610b3e565b610aa0565b6040516101fa9190610d78565b60405180910390f35b61021d60048036038101906102189190610b90565b610ac0565b60405161022a9190610cfd565b60405180910390f35b6000805461024090610f9b565b80601f016020809104026020016040519081016040528092919081815260200182805461026c90610f9b565b80156102b95780601f1061028e576101008083540402835291602001916102b9565b820191906000526020600020905b81548152906001019060200180831161029c57829003601f168201915b505050505081565b600360009054906101000a900473ffffffffffffffffffffffffffffffffffffffff1681565b60056020528060005260406000206000915090505481565b600160009054906101000a900473ffffffffffffffffffffffffffffffffffffffff1673ffffffffffffffffffffffffffffffffffffffff163373ffffffffffffffffffffffffffffffffffffffff161461038f576040517f08c379a000000000000000000000000000000000000000000000000000000000815260040161038690610deb565b60405180910390fd5b60005b600480549050811015610537576000600482815481106103db577f4e487b7100000000000000000000000000000000000000000000000000000000600052603260045260246000fd5b9060005260206000200160009054906101000a900473ffffffffffffffffffffffffffffffffffffffff1690506000600560008373ffffffffffffffffffffffffffffffffffffffff1673ffffffffffffffffffffffffffffffffffffffff168152602001908152602001600020549050600081111561052257600260009054906101000a900473ffffffffffffffffffffffffffffffffffffffff1673ffffffffffffffffffffffffffffffffffffffff1663a9059cbb83836040518363ffffffff167c01000000000000000000000000000000000000000000000000000000000281526004016104ce929190610d4f565b602060405180830381600087803b1580156104e857600080fd5b505af11580156104fc573d6000803e3d6000fd5b505050506040513d601f19601f820116820180604052508101906105209190610b67565b505b5050808061052f90610fcd565b915050610392565b50565b600260009054906101000a900473ffffffffffffffffffffffffffffffffffffffff1681565b60076020528060005260406000206000915054906101000a900460ff1681565b600081116105c3576040517f08c379a00000000000000000000000000000000000000000000000000000000081526004016105ba90610e2b565b60405180910390fd5b600360009054906101000a900473ffffffffffffffffffffffffffffffffffffffff1673ffffffffffffffffffffffffffffffffffffffff166323b872dd3330846040518463ffffffff167c010000000000000000000000000000000000000000000000000000000002815260040161063e93929190610d18565b602060405180830381600087803b15801561065857600080fd5b505af115801561066c573d6000803e3d6000fd5b505050506040513d601f19601f820116820180604052508101906106909190610b67565b5080600560003373ffffffffffffffffffffffffffffffffffffffff1673ffffffffffffffffffffffffffffffffffffffff168152602001908152602001600020546106dc9190610e82565b600560003373ffffffffffffffffffffffffffffffffffffffff1673ffffffffffffffffffffffffffffffffffffffff16815260200190815260200160002081905550600660003373ffffffffffffffffffffffffffffffffffffffff1673ffffffffffffffffffffffffffffffffffffffff16815260200190815260200160002060009054906101000a900460ff166107d4576004339080600181540180825580915050600190039060005260206000200160009091909190916101000a81548173ffffffffffffffffffffffffffffffffffffffff021916908373ffffffffffffffffffffffffffffffffffffffff1602179055505b6001600760003373ffffffffffffffffffffffffffffffffffffffff1673ffffffffffffffffffffffffffffffffffffffff16815260200190815260200160002060006101000a81548160ff0219169083151502179055506001600660003373ffffffffffffffffffffffffffffffffffffffff1673ffffffffffffffffffffffffffffffffffffffff16815260200190815260200160002060006101000a81548160ff02191690831515021790555050565b600160009054906101000a900473ffffffffffffffffffffffffffffffffffffffff1681565b6000600560003373ffffffffffffffffffffffffffffffffffffffff1673ffffffffffffffffffffffffffffffffffffffff16815260200190815260200160002054905060008111610934576040517f08c379a000000000000000000000000000000000000000000000000000000000815260040161092b90610e0b565b60405180910390fd5b600360009054906101000a900473ffffffffffffffffffffffffffffffffffffffff1673ffffffffffffffffffffffffffffffffffffffff1663a9059cbb33836040518363ffffffff167c01000000000000000000000000000000000000000000000000000000000281526004016109ad929190610d4f565b602060405180830381600087803b1580156109c757600080fd5b505af11580156109db573d6000803e3d6000fd5b505050506040513d601f19601f820116820180604052508101906109ff9190610b67565b506000600560003373ffffffffffffffffffffffffffffffffffffffff1673ffffffffffffffffffffffffffffffffffffffff168152602001908152602001600020819055506000600760003373ffffffffffffffffffffffffffffffffffffffff1673ffffffffffffffffffffffffffffffffffffffff16815260200190815260200160002060006101000a81548160ff02191690831515021790555050565b60066020528060005260406000206000915054906101000a900460ff1681565b60048181548110610ad057600080fd5b906000526020600020016000915054906101000a900473ffffffffffffffffffffffffffffffffffffffff1681565b600081359050610b0e81611085565b92915050565b600081519050610b238161109c565b92915050565b600081359050610b38816110b3565b92915050565b600060208284031215610b5057600080fd5b6000610b5e84828501610aff565b91505092915050565b600060208284031215610b7957600080fd5b6000610b8784828501610b14565b91505092915050565b600060208284031215610ba257600080fd5b6000610bb084828501610b29565b91505092915050565b610bc281610ed8565b82525050565b610bd181610eea565b82525050565b610be081610f20565b82525050565b610bef81610f44565b82525050565b6000610c0082610e66565b610c0a8185610e71565b9350610c1a818560208601610f68565b610c2381611074565b840191505092915050565b6000610c3b601883610e71565b91507f43616c6c6572206d75737420626520746865206f776e657200000000000000006000830152602082019050919050565b6000610c7b601c83610e71565b91507f7374616b696e672062616c616e63652063616e206e6f742062652030000000006000830152602082019050919050565b6000610cbb601283610e71565b91507f616d6f756e742063616e6e6f74206265203000000000000000000000000000006000830152602082019050919050565b610cf781610f16565b82525050565b6000602082019050610d126000830184610bb9565b92915050565b6000606082019050610d2d6000830186610bb9565b610d3a6020830185610bb9565b610d476040830184610cee565b949350505050565b6000604082019050610d646000830185610bb9565b610d716020830184610cee565b9392505050565b6000602082019050610d8d6000830184610bc8565b92915050565b6000602082019050610da86000830184610bd7565b92915050565b6000602082019050610dc36000830184610be6565b92915050565b60006020820190508181036000830152610de38184610bf5565b905092915050565b60006020820190508181036000830152610e0481610c2e565b9050919050565b60006020820190508181036000830152610e2481610c6e565b9050919050565b60006020820190508181036000830152610e4481610cae565b9050919050565b6000602082019050610e606000830184610cee565b92915050565b600081519050919050565b600082825260208201905092915050565b6000610e8d82610f16565b9150610e9883610f16565b9250827fffffffffffffffffffffffffffffffffffffffffffffffffffffffffffffffff03821115610ecd57610ecc611016565b5b828201905092915050565b6000610ee382610ef6565b9050919050565b60008115159050919050565b600073ffffffffffffffffffffffffffffffffffffffff82169050919050565b6000819050919050565b6000610f2b82610f32565b9050919050565b6000610f3d82610ef6565b9050919050565b6000610f4f82610f56565b9050919050565b6000610f6182610ef6565b9050919050565b60005b83811015610f86578082015181840152602081019050610f6b565b83811115610f95576000848401525b50505050565b60006002820490506001821680610fb357607f821691505b60208210811415610fc757610fc6611045565b5b50919050565b6000610fd882610f16565b91507fffffffffffffffffffffffffffffffffffffffffffffffffffffffffffffffff82141561100b5761100a611016565b5b600182019050919050565b7f4e487b7100000000000000000000000000000000000000000000000000000000600052601160045260246000fd5b7f4e487b7100000000000000000000000000000000000000000000000000000000600052602260045260246000fd5b6000601f19601f8301169050919050565b61108e81610ed8565b811461109957600080fd5b50565b6110a581610eea565b81146110b057600080fd5b50565b6110bc81610f16565b81146110c757600080fd5b5056fea2646970667358221220ed9c7c91d24620dd22227959e743faa4892c754a2d56c0a469e4abd7b526997964736f6c63430008000033",
  "immutableReferences": {},
  "source": "// SPDX-License-Identifier: MIT\r\n\r\npragma solidity 0.8.0;\r\n\r\nimport \"./SeedToken.sol\";\r\nimport \"./FruitToken.sol\";\r\n\r\ncontract YieldFarm {\r\n    string public name = \"Yield Farm\";\r\n    address public owner;\r\n\r\n    FruitToken public fruitToken;\r\n    SeedToken public seedToken;\r\n\r\n    address[] public stakers;\r\n    mapping(address => uint) public stakingBalance;\r\n    mapping(address => bool) public hasStaked;\r\n    mapping(address => bool) public isStaking;\r\n\r\n    // in constructor pass in the address for Seed and Fruit tokens\r\n    constructor(FruitToken _fruitToken, SeedToken _seedToken) {\r\n        fruitToken = _fruitToken;\r\n        seedToken = _seedToken;\r\n        owner = msg.sender;\r\n    }\r\n\r\n    // allow user to stake usdc tokens in contract\r\n    \r\n    function stakeTokens(uint _amount) public {\r\n        require(_amount > 0, \"amount cannot be 0\");\r\n\r\n        // Trasnfer Seed tokens to contract for staking\r\n        seedToken.transferFrom(msg.sender, address(this), _amount);\r\n\r\n        // Update the staking balance in map\r\n        stakingBalance[msg.sender] = stakingBalance[msg.sender] + _amount;\r\n\r\n        // Add user to stakers array if they haven't staked already\r\n        if(!hasStaked[msg.sender]) {\r\n            stakers.push(msg.sender);\r\n        }\r\n\r\n        // Update staking status to track\r\n        isStaking[msg.sender] = true;\r\n        hasStaked[msg.sender] = true;\r\n    }\r\n\r\n    // allow user to unstake total balance and withdraw USDC from the contract\r\n    \r\n    function unstakeTokens() public {\r\n\r\n    \t// get the users staking balance in usdc\r\n    \tuint balance = stakingBalance[msg.sender];\r\n    \r\n        // reqire the amount staked needs to be greater then 0\r\n        require(balance > 0, \"staking balance can not be 0\");\r\n    \r\n        // transfer usdc tokens out of this contract to the msg.sender\r\n        seedToken.transfer(msg.sender, balance);\r\n    \r\n        // reset staking balance map to 0\r\n        stakingBalance[msg.sender] = 0;\r\n    \r\n        // update the staking status\r\n        isStaking[msg.sender] = false;\r\n\r\n} \r\n\r\n\r\n    // Issue bank tokens as a reward for staking\r\n    \r\n    function issueTokens() public {\r\n        require(msg.sender == owner, \"Caller must be the owner\");\r\n        for (uint i=0; i<stakers.length; i++) {\r\n            address recipient = stakers[i];\r\n            uint balance = stakingBalance[recipient];\r\n            if(balance >0 ) {\r\n                fruitToken.transfer(recipient, balance);\r\n            }\r\n        }\r\n    }\r\n\r\n}\r\n",
  "sourcePath": "C:\\Users\\quang\\Documents\\GitHub\\yield_farming_app\\contracts\\YieldFarm.sol",
  "compiler": {
    "name": "solc",
    "version": "0.8.0+commit.c7dfd78e.Emscripten.clang"
  },
  "schemaVersion": "3.4.2",
  "updatedAt": "2021-08-22T11:34:52.557Z",
  "networkType": "ethereum",
  "devdoc": {
    "kind": "dev",
    "methods": {},
    "version": 1
  },
  "userdoc": {
    "kind": "user",
    "methods": {},
    "version": 1
  }
}