{
  "contractName": "FruitToken",
  "abi": [
    {
      "inputs": [],
      "stateMutability": "nonpayable",
      "type": "constructor"
    },
    {
      "anonymous": false,
      "inputs": [
        {
          "indexed": true,
          "internalType": "address",
          "name": "owner",
          "type": "address"
        },
        {
          "indexed": true,
          "internalType": "address",
          "name": "spender",
          "type": "address"
        },
        {
          "indexed": false,
          "internalType": "uint256",
          "name": "value",
          "type": "uint256"
        }
      ],
      "name": "Approval",
      "type": "event"
    },
    {
      "anonymous": false,
      "inputs": [
        {
          "indexed": true,
          "internalType": "address",
          "name": "from",
          "type": "address"
        },
        {
          "indexed": true,
          "internalType": "address",
          "name": "to",
          "type": "address"
        },
        {
          "indexed": false,
          "internalType": "uint256",
          "name": "value",
          "type": "uint256"
        }
      ],
      "name": "Transfer",
      "type": "event"
    },
    {
      "inputs": [],
      "name": "admin",
      "outputs": [
        {
          "internalType": "address",
          "name": "",
          "type": "address"
        }
      ],
      "stateMutability": "view",
      "type": "function"
    },
    {
      "inputs": [
        {
          "internalType": "address",
          "name": "owner",
          "type": "address"
        },
        {
          "internalType": "address",
          "name": "spender",
          "type": "address"
        }
      ],
      "name": "allowance",
      "outputs": [
        {
          "internalType": "uint256",
          "name": "",
          "type": "uint256"
        }
      ],
      "stateMutability": "view",
      "type": "function"
    },
    {
      "inputs": [
        {
          "internalType": "address",
          "name": "spender",
          "type": "address"
        },
        {
          "internalType": "uint256",
          "name": "amount",
          "type": "uint256"
        }
      ],
      "name": "approve",
      "outputs": [
        {
          "internalType": "bool",
          "name": "",
          "type": "bool"
        }
      ],
      "stateMutability": "nonpayable",
      "type": "function"
    },
    {
      "inputs": [
        {
          "internalType": "address",
          "name": "account",
          "type": "address"
        }
      ],
      "name": "balanceOf",
      "outputs": [
        {
          "internalType": "uint256",
          "name": "",
          "type": "uint256"
        }
      ],
      "stateMutability": "view",
      "type": "function"
    },
    {
      "inputs": [],
      "name": "decimals",
      "outputs": [
        {
          "internalType": "uint8",
          "name": "",
          "type": "uint8"
        }
      ],
      "stateMutability": "view",
      "type": "function"
    },
    {
      "inputs": [
        {
          "internalType": "address",
          "name": "spender",
          "type": "address"
        },
        {
          "internalType": "uint256",
          "name": "substractedValue",
          "type": "uint256"
        }
      ],
      "name": "decreaseAllowance",
      "outputs": [
        {
          "internalType": "bool",
          "name": "",
          "type": "bool"
        }
      ],
      "stateMutability": "nonpayable",
      "type": "function"
    },
    {
      "inputs": [
        {
          "internalType": "address",
          "name": "spender",
          "type": "address"
        },
        {
          "internalType": "uint256",
          "name": "addValue",
          "type": "uint256"
        }
      ],
      "name": "increaseAllowance",
      "outputs": [
        {
          "internalType": "bool",
          "name": "",
          "type": "bool"
        }
      ],
      "stateMutability": "nonpayable",
      "type": "function"
    },
    {
      "inputs": [],
      "name": "name",
      "outputs": [
        {
          "internalType": "string",
          "name": "",
          "type": "string"
        }
      ],
      "stateMutability": "view",
      "type": "function"
    },
    {
      "inputs": [],
      "name": "symbol",
      "outputs": [
        {
          "internalType": "string",
          "name": "",
          "type": "string"
        }
      ],
      "stateMutability": "view",
      "type": "function"
    },
    {
      "inputs": [],
      "name": "totalSupply",
      "outputs": [
        {
          "internalType": "uint256",
          "name": "",
          "type": "uint256"
        }
      ],
      "stateMutability": "view",
      "type": "function"
    },
    {
      "inputs": [
        {
          "internalType": "address",
          "name": "recipient",
          "type": "address"
        },
        {
          "internalType": "uint256",
          "name": "amount",
          "type": "uint256"
        }
      ],
      "name": "transfer",
      "outputs": [
        {
          "internalType": "bool",
          "name": "",
          "type": "bool"
        }
      ],
      "stateMutability": "nonpayable",
      "type": "function"
    },
    {
      "inputs": [
        {
          "internalType": "address",
          "name": "sender",
          "type": "address"
        },
        {
          "internalType": "address",
          "name": "recipient",
          "type": "address"
        },
        {
          "internalType": "uint256",
          "name": "amount",
          "type": "uint256"
        }
      ],
      "name": "transferFrom",
      "outputs": [
        {
          "internalType": "bool",
          "name": "",
          "type": "bool"
        }
      ],
      "stateMutability": "nonpayable",
      "type": "function"
    },
    {
      "inputs": [
        {
          "internalType": "address",
          "name": "to",
          "type": "address"
        },
        {
          "internalType": "uint256",
          "name": "amount",
          "type": "uint256"
        }
      ],
      "name": "mint",
      "outputs": [],
      "stateMutability": "nonpayable",
      "type": "function"
    },
    {
      "inputs": [
        {
          "internalType": "address",
          "name": "to",
          "type": "address"
        },
        {
          "internalType": "uint256",
          "name": "amount",
          "type": "uint256"
        }
      ],
      "name": "burn",
      "outputs": [],
      "stateMutability": "nonpayable",
      "type": "function"
    }
  ],
  "bytecode": "0x60806040523480156200001157600080fd5b506040518060400160405280600b81526020017f467275697420546f6b656e0000000000000000000000000000000000000000008152506040518060400160405280600581526020017f465255495400000000000000000000000000000000000000000000000000000081525081600290805190602001906200009692919062000298565b508060039080519060200190620000af92919062000298565b505050620000ce3369d3c21bcecceda10000006200011560201b60201c565b33600560006101000a81548173ffffffffffffffffffffffffffffffffffffffff021916908373ffffffffffffffffffffffffffffffffffffffff160217905550620004e6565b600073ffffffffffffffffffffffffffffffffffffffff168273ffffffffffffffffffffffffffffffffffffffff16141562000188576040517f08c379a00000000000000000000000000000000000000000000000000000000081526004016200017f906200039b565b60405180910390fd5b6200019c600083836200028e60201b60201c565b8060046000828254620001b09190620003eb565b92505081905550806000808473ffffffffffffffffffffffffffffffffffffffff1673ffffffffffffffffffffffffffffffffffffffff1681526020019081526020016000206000828254620002079190620003eb565b925050819055508173ffffffffffffffffffffffffffffffffffffffff16600073ffffffffffffffffffffffffffffffffffffffff167fddf252ad1be2c89b69c2b068fc378daa952ba7f163c4a11628f55a4df523b3ef836040516200026e9190620003bd565b60405180910390a36200028a600083836200029360201b60201c565b5050565b505050565b505050565b828054620002a69062000452565b90600052602060002090601f016020900481019282620002ca576000855562000316565b82601f10620002e557805160ff191683800117855562000316565b8280016001018555821562000316579182015b8281111562000315578251825591602001919060010190620002f8565b5b50905062000325919062000329565b5090565b5b80821115620003445760008160009055506001016200032a565b5090565b600062000357601f83620003da565b91507f45524332303a206d696e7420746f20746865207a65726f2061646472657373006000830152602082019050919050565b620003958162000448565b82525050565b60006020820190508181036000830152620003b68162000348565b9050919050565b6000602082019050620003d460008301846200038a565b92915050565b600082825260208201905092915050565b6000620003f88262000448565b9150620004058362000448565b9250827fffffffffffffffffffffffffffffffffffffffffffffffffffffffffffffffff038211156200043d576200043c62000488565b5b828201905092915050565b6000819050919050565b600060028204905060018216806200046b57607f821691505b60208210811415620004825762000481620004b7565b5b50919050565b7f4e487b7100000000000000000000000000000000000000000000000000000000600052601160045260246000fd5b7f4e487b7100000000000000000000000000000000000000000000000000000000600052602260045260246000fd5b611a9580620004f66000396000f3fe608060405234801561001057600080fd5b50600436106100ea5760003560e01c806370a082311161008c578063a457c2d711610066578063a457c2d71461025f578063a9059cbb1461028f578063dd62ed3e146102bf578063f851a440146102ef576100ea565b806370a08231146101f557806395d89b41146102255780639dc29fac14610243576100ea565b806323b872dd116100c857806323b872dd1461015b578063313ce5671461018b57806339509351146101a957806340c10f19146101d9576100ea565b806306fdde03146100ef578063095ea7b31461010d57806318160ddd1461013d575b600080fd5b6100f761030d565b60405161010491906116aa565b60405180910390f35b610127600480360381019061012291906111ad565b61039f565b604051610134919061168f565b60405180910390f35b6101456103bd565b604051610152919061182c565b60405180910390f35b6101756004803603810190610170919061115e565b6103c7565b604051610182919061168f565b60405180910390f35b6101936104bf565b6040516101a09190611847565b60405180910390f35b6101c360048036038101906101be91906111ad565b6104c8565b6040516101d0919061168f565b60405180910390f35b6101f360048036038101906101ee91906111ad565b610574565b005b61020f600480360381019061020a91906110f9565b610612565b60405161021c919061182c565b60405180910390f35b61022d61065a565b60405161023a91906116aa565b60405180910390f35b61025d600480360381019061025891906111ad565b6106ec565b005b610279600480360381019061027491906111ad565b6106fa565b604051610286919061168f565b60405180910390f35b6102a960048036038101906102a491906111ad565b610868565b6040516102b6919061168f565b60405180910390f35b6102d960048036038101906102d49190611122565b610886565b6040516102e6919061182c565b60405180910390f35b6102f761090d565b6040516103049190611674565b60405180910390f35b60606002805461031c90611990565b80601f016020809104026020016040519081016040528092919081815260200182805461034890611990565b80156103955780601f1061036a57610100808354040283529160200191610395565b820191906000526020600020905b81548152906001019060200180831161037857829003601f168201915b5050505050905090565b60006103b36103ac610933565b848461093b565b6001905092915050565b6000600454905090565b60006103d4848484610b06565b6000600160008673ffffffffffffffffffffffffffffffffffffffff1673ffffffffffffffffffffffffffffffffffffffff168152602001908152602001600020600061041f610933565b73ffffffffffffffffffffffffffffffffffffffff1673ffffffffffffffffffffffffffffffffffffffff1681526020019081526020016000205490508281101561049f576040517f08c379a00000000000000000000000000000000000000000000000000000000081526004016104969061180c565b60405180910390fd5b6104b3856104ab610933565b85840361093b565b60019150509392505050565b60006012905090565b600061056a6104d5610933565b8484600160006104e3610933565b73ffffffffffffffffffffffffffffffffffffffff1673ffffffffffffffffffffffffffffffffffffffff16815260200190815260200160002060008873ffffffffffffffffffffffffffffffffffffffff1673ffffffffffffffffffffffffffffffffffffffff16815260200190815260200160002054610565919061187e565b61093b565b6001905092915050565b600560009054906101000a900473ffffffffffffffffffffffffffffffffffffffff1673ffffffffffffffffffffffffffffffffffffffff163373ffffffffffffffffffffffffffffffffffffffff1614610604576040517f08c379a00000000000000000000000000000000000000000000000000000000081526004016105fb9061174c565b60405180910390fd5b61060e8282610d87565b5050565b60008060008373ffffffffffffffffffffffffffffffffffffffff1673ffffffffffffffffffffffffffffffffffffffff168152602001908152602001600020549050919050565b60606003805461066990611990565b80601f016020809104026020016040519081016040528092919081815260200182805461069590611990565b80156106e25780601f106106b7576101008083540402835291602001916106e2565b820191906000526020600020905b8154815290600101906020018083116106c557829003601f168201915b5050505050905090565b6106f63382610ee7565b5050565b60008060016000610709610933565b73ffffffffffffffffffffffffffffffffffffffff1673ffffffffffffffffffffffffffffffffffffffff16815260200190815260200160002060008573ffffffffffffffffffffffffffffffffffffffff1673ffffffffffffffffffffffffffffffffffffffff168152602001908152602001600020549050828110156107c6576040517f08c379a00000000000000000000000000000000000000000000000000000000081526004016107bd906117cc565b60405180910390fd5b61085d6107d1610933565b8585600160006107df610933565b73ffffffffffffffffffffffffffffffffffffffff1673ffffffffffffffffffffffffffffffffffffffff16815260200190815260200160002060008973ffffffffffffffffffffffffffffffffffffffff1673ffffffffffffffffffffffffffffffffffffffff168152602001908152602001600020540361093b565b600191505092915050565b600061087c610875610933565b8484610b06565b6001905092915050565b6000600160008473ffffffffffffffffffffffffffffffffffffffff1673ffffffffffffffffffffffffffffffffffffffff16815260200190815260200160002060008373ffffffffffffffffffffffffffffffffffffffff1673ffffffffffffffffffffffffffffffffffffffff16815260200190815260200160002054905092915050565b600560009054906101000a900473ffffffffffffffffffffffffffffffffffffffff1681565b600033905090565b600073ffffffffffffffffffffffffffffffffffffffff168373ffffffffffffffffffffffffffffffffffffffff1614156109ab576040517f08c379a00000000000000000000000000000000000000000000000000000000081526004016109a2906117ac565b60405180910390fd5b600073ffffffffffffffffffffffffffffffffffffffff168273ffffffffffffffffffffffffffffffffffffffff161415610a1b576040517f08c379a0000000000000000000000000000000000000000000000000000000008152600401610a12906116ec565b60405180910390fd5b80600160008573ffffffffffffffffffffffffffffffffffffffff1673ffffffffffffffffffffffffffffffffffffffff16815260200190815260200160002060008473ffffffffffffffffffffffffffffffffffffffff1673ffffffffffffffffffffffffffffffffffffffff168152602001908152602001600020819055508173ffffffffffffffffffffffffffffffffffffffff168373ffffffffffffffffffffffffffffffffffffffff167f8c5be1e5ebec7d5bd14f71427d1e84f3dd0314c0f7b2291e5b200ac8c7c3b92583604051610af9919061182c565b60405180910390a3505050565b600073ffffffffffffffffffffffffffffffffffffffff168373ffffffffffffffffffffffffffffffffffffffff161415610b76576040517f08c379a0000000000000000000000000000000000000000000000000000000008152600401610b6d9061178c565b60405180910390fd5b600073ffffffffffffffffffffffffffffffffffffffff168273ffffffffffffffffffffffffffffffffffffffff161415610be6576040517f08c379a0000000000000000000000000000000000000000000000000000000008152600401610bdd906116cc565b60405180910390fd5b610bf18383836110c5565b60008060008573ffffffffffffffffffffffffffffffffffffffff1673ffffffffffffffffffffffffffffffffffffffff16815260200190815260200160002054905081811015610c77576040517f08c379a0000000000000000000000000000000000000000000000000000000008152600401610c6e9061170c565b60405180910390fd5b8181036000808673ffffffffffffffffffffffffffffffffffffffff1673ffffffffffffffffffffffffffffffffffffffff16815260200190815260200160002081905550816000808573ffffffffffffffffffffffffffffffffffffffff1673ffffffffffffffffffffffffffffffffffffffff1681526020019081526020016000206000828254610d0a919061187e565b925050819055508273ffffffffffffffffffffffffffffffffffffffff168473ffffffffffffffffffffffffffffffffffffffff167fddf252ad1be2c89b69c2b068fc378daa952ba7f163c4a11628f55a4df523b3ef84604051610d6e919061182c565b60405180910390a3610d818484846110ca565b50505050565b600073ffffffffffffffffffffffffffffffffffffffff168273ffffffffffffffffffffffffffffffffffffffff161415610df7576040517f08c379a0000000000000000000000000000000000000000000000000000000008152600401610dee906117ec565b60405180910390fd5b610e03600083836110c5565b8060046000828254610e15919061187e565b92505081905550806000808473ffffffffffffffffffffffffffffffffffffffff1673ffffffffffffffffffffffffffffffffffffffff1681526020019081526020016000206000828254610e6a919061187e565b925050819055508173ffffffffffffffffffffffffffffffffffffffff16600073ffffffffffffffffffffffffffffffffffffffff167fddf252ad1be2c89b69c2b068fc378daa952ba7f163c4a11628f55a4df523b3ef83604051610ecf919061182c565b60405180910390a3610ee3600083836110ca565b5050565b600073ffffffffffffffffffffffffffffffffffffffff168273ffffffffffffffffffffffffffffffffffffffff161415610f57576040517f08c379a0000000000000000000000000000000000000000000000000000000008152600401610f4e9061176c565b60405180910390fd5b610f63826000836110c5565b60008060008473ffffffffffffffffffffffffffffffffffffffff1673ffffffffffffffffffffffffffffffffffffffff16815260200190815260200160002054905081811015610fe9576040517f08c379a0000000000000000000000000000000000000000000000000000000008152600401610fe09061172c565b60405180910390fd5b816000808573ffffffffffffffffffffffffffffffffffffffff1673ffffffffffffffffffffffffffffffffffffffff16815260200190815260200160002060008282540392505081905550816004600082825461104791906118d4565b92505081905550600073ffffffffffffffffffffffffffffffffffffffff168373ffffffffffffffffffffffffffffffffffffffff167fddf252ad1be2c89b69c2b068fc378daa952ba7f163c4a11628f55a4df523b3ef846040516110ac919061182c565b60405180910390a36110c0836000846110ca565b505050565b505050565b505050565b6000813590506110de81611a31565b92915050565b6000813590506110f381611a48565b92915050565b60006020828403121561110b57600080fd5b6000611119848285016110cf565b91505092915050565b6000806040838503121561113557600080fd5b6000611143858286016110cf565b9250506020611154858286016110cf565b9150509250929050565b60008060006060848603121561117357600080fd5b6000611181868287016110cf565b9350506020611192868287016110cf565b92505060406111a3868287016110e4565b9150509250925092565b600080604083850312156111c057600080fd5b60006111ce858286016110cf565b92505060206111df858286016110e4565b9150509250929050565b6111f281611908565b82525050565b6112018161191a565b82525050565b600061121282611862565b61121c818561186d565b935061122c81856020860161195d565b61123581611a20565b840191505092915050565b600061124d60238361186d565b91507f45524332303a207472616e7366657220746f20746865207a65726f206164647260008301527f65737300000000000000000000000000000000000000000000000000000000006020830152604082019050919050565b60006112b360228361186d565b91507f45524332303a20617070726f766520746f20746865207a65726f20616464726560008301527f73730000000000000000000000000000000000000000000000000000000000006020830152604082019050919050565b600061131960268361186d565b91507f45524332303a207472616e7366657220616d6f756e742065786365656473206260008301527f616c616e636500000000000000000000000000000000000000000000000000006020830152604082019050919050565b600061137f60298361186d565b91507f45524332303a206275726e20616d6f756e7420657863656564206163636f756e60008301527f742062616c616e636500000000000000000000000000000000000000000000006020830152604082019050919050565b60006113e560148361186d565b91507f4f6e6c792061646d696e2063616e20646f2069740000000000000000000000006000830152602082019050919050565b600061142560218361186d565b91507f45524332303a206275726e2066726f6d20746865207a65726f2061646472657360008301527f73000000000000000000000000000000000000000000000000000000000000006020830152604082019050919050565b600061148b60258361186d565b91507f45524332303a207472616e736665722066726f6d20746865207a65726f20616460008301527f64726573730000000000000000000000000000000000000000000000000000006020830152604082019050919050565b60006114f160248361186d565b91507f45524332303a20617070726f76652066726f6d20746865207a65726f2061646460008301527f72657373000000000000000000000000000000000000000000000000000000006020830152604082019050919050565b600061155760258361186d565b91507f45524332303a2064656372656173656420616c6c6f77616e63652062656c6f7760008301527f207a65726f0000000000000000000000000000000000000000000000000000006020830152604082019050919050565b60006115bd601f8361186d565b91507f45524332303a206d696e7420746f20746865207a65726f2061646472657373006000830152602082019050919050565b60006115fd60288361186d565b91507f45524332303a207472616e7366657220616d6f756e742065786365646473206160008301527f6c6c6f77616e63650000000000000000000000000000000000000000000000006020830152604082019050919050565b61165f81611946565b82525050565b61166e81611950565b82525050565b600060208201905061168960008301846111e9565b92915050565b60006020820190506116a460008301846111f8565b92915050565b600060208201905081810360008301526116c48184611207565b905092915050565b600060208201905081810360008301526116e581611240565b9050919050565b60006020820190508181036000830152611705816112a6565b9050919050565b600060208201905081810360008301526117258161130c565b9050919050565b6000602082019050818103600083015261174581611372565b9050919050565b60006020820190508181036000830152611765816113d8565b9050919050565b6000602082019050818103600083015261178581611418565b9050919050565b600060208201905081810360008301526117a58161147e565b9050919050565b600060208201905081810360008301526117c5816114e4565b9050919050565b600060208201905081810360008301526117e58161154a565b9050919050565b60006020820190508181036000830152611805816115b0565b9050919050565b60006020820190508181036000830152611825816115f0565b9050919050565b60006020820190506118416000830184611656565b92915050565b600060208201905061185c6000830184611665565b92915050565b600081519050919050565b600082825260208201905092915050565b600061188982611946565b915061189483611946565b9250827fffffffffffffffffffffffffffffffffffffffffffffffffffffffffffffffff038211156118c9576118c86119c2565b5b828201905092915050565b60006118df82611946565b91506118ea83611946565b9250828210156118fd576118fc6119c2565b5b828203905092915050565b600061191382611926565b9050919050565b60008115159050919050565b600073ffffffffffffffffffffffffffffffffffffffff82169050919050565b6000819050919050565b600060ff82169050919050565b60005b8381101561197b578082015181840152602081019050611960565b8381111561198a576000848401525b50505050565b600060028204905060018216806119a857607f821691505b602082108114156119bc576119bb6119f1565b5b50919050565b7f4e487b7100000000000000000000000000000000000000000000000000000000600052601160045260246000fd5b7f4e487b7100000000000000000000000000000000000000000000000000000000600052602260045260246000fd5b6000601f19601f8301169050919050565b611a3a81611908565b8114611a4557600080fd5b50565b611a5181611946565b8114611a5c57600080fd5b5056fea2646970667358221220a92d8909ca7d1e57ae03a8e0a56b622b01841f4ef8a0b207573b287691c8f9d664736f6c63430008000033",
  "immutableReferences": {},
  "source": "// SPDX-License-Identifier: MIT\r\n\r\npragma solidity ^0.8.0;\r\n\r\nimport \"./extensions/ERC20.sol\";\r\n\r\ncontract FruitToken is ERC20 {\r\n    address public admin; \r\n\r\n    constructor() ERC20(\"Fruit Token\", \"FRUIT\") {\r\n        _mint(msg.sender, 1000000 * 10 ** 18);\r\n        admin = msg.sender;\r\n    }\r\n\r\n    function mint(address to, uint amount) external {\r\n        require(msg.sender == admin, \"Only admin can do it\");\r\n        _mint(to, amount);\r\n    }\r\n\r\n    function burn(address to, uint amount) external {\r\n        _burn(msg.sender, amount);\r\n    }\r\n}",
  "sourcePath": "C:\\Users\\quang\\Documents\\GitHub\\yield_farming_app\\contracts\\FruitToken.sol",
  "compiler": {
    "name": "solc",
    "version": "0.8.0+commit.c7dfd78e.Emscripten.clang"
  },
  "schemaVersion": "3.4.2",
  "updatedAt": "2021-08-07T20:56:04.189Z",
  "devdoc": {
    "kind": "dev",
    "methods": {},
    "version": 1
  },
  "userdoc": {
    "kind": "user",
    "methods": {},
    "version": 1
  }
}