{
  "contractName": "TokenFarm",
  "abi": [
    {
      "inputs": [
        {
          "internalType": "contract FruitToken",
          "name": "_fruitToken",
          "type": "address"
        },
        {
          "internalType": "contract SeedToken",
          "name": "_seedToken",
          "type": "address"
        }
      ],
      "stateMutability": "nonpayable",
      "type": "constructor"
    },
    {
      "inputs": [],
      "name": "fruitToken",
      "outputs": [
        {
          "internalType": "contract FruitToken",
          "name": "",
          "type": "address"
        }
      ],
      "stateMutability": "view",
      "type": "function",
      "constant": true
    },
    {
      "inputs": [
        {
          "internalType": "address",
          "name": "",
          "type": "address"
        }
      ],
      "name": "hasStaked",
      "outputs": [
        {
          "internalType": "bool",
          "name": "",
          "type": "bool"
        }
      ],
      "stateMutability": "view",
      "type": "function",
      "constant": true
    },
    {
      "inputs": [
        {
          "internalType": "address",
          "name": "",
          "type": "address"
        }
      ],
      "name": "isStaking",
      "outputs": [
        {
          "internalType": "bool",
          "name": "",
          "type": "bool"
        }
      ],
      "stateMutability": "view",
      "type": "function",
      "constant": true
    },
    {
      "inputs": [],
      "name": "name",
      "outputs": [
        {
          "internalType": "string",
          "name": "",
          "type": "string"
        }
      ],
      "stateMutability": "view",
      "type": "function",
      "constant": true
    },
    {
      "inputs": [],
      "name": "owner",
      "outputs": [
        {
          "internalType": "address",
          "name": "",
          "type": "address"
        }
      ],
      "stateMutability": "view",
      "type": "function",
      "constant": true
    },
    {
      "inputs": [],
      "name": "seedToken",
      "outputs": [
        {
          "internalType": "contract SeedToken",
          "name": "",
          "type": "address"
        }
      ],
      "stateMutability": "view",
      "type": "function",
      "constant": true
    },
    {
      "inputs": [
        {
          "internalType": "uint256",
          "name": "",
          "type": "uint256"
        }
      ],
      "name": "stakers",
      "outputs": [
        {
          "internalType": "address",
          "name": "",
          "type": "address"
        }
      ],
      "stateMutability": "view",
      "type": "function",
      "constant": true
    },
    {
      "inputs": [
        {
          "internalType": "address",
          "name": "",
          "type": "address"
        }
      ],
      "name": "stakingBalance",
      "outputs": [
        {
          "internalType": "uint256",
          "name": "",
          "type": "uint256"
        }
      ],
      "stateMutability": "view",
      "type": "function",
      "constant": true
    },
    {
      "inputs": [
        {
          "internalType": "uint256",
          "name": "_amount",
          "type": "uint256"
        }
      ],
      "name": "stakeTokens",
      "outputs": [],
      "stateMutability": "nonpayable",
      "type": "function"
    },
    {
      "inputs": [],
      "name": "unstakeTokens",
      "outputs": [],
      "stateMutability": "nonpayable",
      "type": "function"
    },
    {
      "inputs": [],
      "name": "issueInterestToken",
      "outputs": [],
      "stateMutability": "nonpayable",
      "type": "function"
    }
  ],
  "bytecode": "0x60806040526040518060400160405280601181526020017f5969656c64206661726d696e6720617070000000000000000000000000000000815250600090805190602001906200005192919062000150565b503480156200005f57600080fd5b50604051620013133803806200131383398181016040528101906200008591906200022e565b81600260006101000a81548173ffffffffffffffffffffffffffffffffffffffff021916908373ffffffffffffffffffffffffffffffffffffffff16021790555080600360006101000a81548173ffffffffffffffffffffffffffffffffffffffff021916908373ffffffffffffffffffffffffffffffffffffffff16021790555033600160006101000a81548173ffffffffffffffffffffffffffffffffffffffff021916908373ffffffffffffffffffffffffffffffffffffffff160217905550505062000364565b8280546200015e90620002cb565b90600052602060002090601f016020900481019282620001825760008555620001ce565b82601f106200019d57805160ff1916838001178555620001ce565b82800160010185558215620001ce579182015b82811115620001cd578251825591602001919060010190620001b0565b5b509050620001dd9190620001e1565b5090565b5b80821115620001fc576000816000905550600101620001e2565b5090565b600081519050620002118162000330565b92915050565b60008151905062000228816200034a565b92915050565b600080604083850312156200024257600080fd5b6000620002528582860162000200565b9250506020620002658582860162000217565b9150509250929050565b60006200027c82620002ab565b9050919050565b600062000290826200026f565b9050919050565b6000620002a4826200026f565b9050919050565b600073ffffffffffffffffffffffffffffffffffffffff82169050919050565b60006002820490506001821680620002e457607f821691505b60208210811415620002fb57620002fa62000301565b5b50919050565b7f4e487b7100000000000000000000000000000000000000000000000000000000600052602260045260246000fd5b6200033b8162000283565b81146200034757600080fd5b50565b620003558162000297565b81146200036157600080fd5b50565b610f9f80620003746000396000f3fe608060405234801561001057600080fd5b50600436106100a95760003560e01c80637547c7a3116100715780637547c7a3146101685780638033bc1a146101845780638da5cb5b1461018e578063a5ce413b146101ac578063c93c8f34146101b6578063fd5e6dd1146101e6576100a9565b806306fdde03146100ae578063311f8483146100cc57806345bc78ab146100ea578063680a9a191461011a5780636f49712b14610138575b600080fd5b6100b6610216565b6040516100c39190610c88565b60405180910390f35b6100d46102a4565b6040516100e19190610c6d565b60405180910390f35b61010460048036038101906100ff9190610a3d565b6102ca565b6040516101119190610cea565b60405180910390f35b6101226102e2565b60405161012f9190610c52565b60405180910390f35b610152600480360381019061014d9190610a3d565b610308565b60405161015f9190610c37565b60405180910390f35b610182600480360381019061017d9190610a8f565b610328565b005b61018c610613565b005b6101966107a2565b6040516101a39190610bbc565b60405180910390f35b6101b46107c8565b005b6101d060048036038101906101cb9190610a3d565b61099f565b6040516101dd9190610c37565b60405180910390f35b61020060048036038101906101fb9190610a8f565b6109bf565b60405161020d9190610bbc565b60405180910390f35b6000805461022390610e3a565b80601f016020809104026020016040519081016040528092919081815260200182805461024f90610e3a565b801561029c5780601f106102715761010080835404028352916020019161029c565b820191906000526020600020905b81548152906001019060200180831161027f57829003601f168201915b505050505081565b600360009054906101000a900473ffffffffffffffffffffffffffffffffffffffff1681565b60056020528060005260406000206000915090505481565b600260009054906101000a900473ffffffffffffffffffffffffffffffffffffffff1681565b60076020528060005260406000206000915054906101000a900460ff1681565b6000811161036b576040517f08c379a000000000000000000000000000000000000000000000000000000000815260040161036290610cca565b60405180910390fd5b600360009054906101000a900473ffffffffffffffffffffffffffffffffffffffff1673ffffffffffffffffffffffffffffffffffffffff166323b872dd3330846040518463ffffffff1660e01b81526004016103ca93929190610bd7565b602060405180830381600087803b1580156103e457600080fd5b505af11580156103f8573d6000803e3d6000fd5b505050506040513d601f19601f8201168201806040525081019061041c9190610a66565b5080600560003373ffffffffffffffffffffffffffffffffffffffff1673ffffffffffffffffffffffffffffffffffffffff168152602001908152602001600020546104689190610d21565b600560003373ffffffffffffffffffffffffffffffffffffffff1673ffffffffffffffffffffffffffffffffffffffff16815260200190815260200160002081905550600660003373ffffffffffffffffffffffffffffffffffffffff1673ffffffffffffffffffffffffffffffffffffffff16815260200190815260200160002060009054906101000a900460ff16610560576004339080600181540180825580915050600190039060005260206000200160009091909190916101000a81548173ffffffffffffffffffffffffffffffffffffffff021916908373ffffffffffffffffffffffffffffffffffffffff1602179055505b6001600760003373ffffffffffffffffffffffffffffffffffffffff1673ffffffffffffffffffffffffffffffffffffffff16815260200190815260200160002060006101000a81548160ff0219169083151502179055506001600660003373ffffffffffffffffffffffffffffffffffffffff1673ffffffffffffffffffffffffffffffffffffffff16815260200190815260200160002060006101000a81548160ff02191690831515021790555050565b60005b60048054905081101561079f5760006004828154811061065f577f4e487b7100000000000000000000000000000000000000000000000000000000600052603260045260246000fd5b9060005260206000200160009054906101000a900473ffffffffffffffffffffffffffffffffffffffff1690506000600560008373ffffffffffffffffffffffffffffffffffffffff1673ffffffffffffffffffffffffffffffffffffffff168152602001908152602001600020549050600081111561078a57600260009054906101000a900473ffffffffffffffffffffffffffffffffffffffff1673ffffffffffffffffffffffffffffffffffffffff1663a9059cbb83836040518363ffffffff1660e01b8152600401610736929190610c0e565b602060405180830381600087803b15801561075057600080fd5b505af1158015610764573d6000803e3d6000fd5b505050506040513d601f19601f820116820180604052508101906107889190610a66565b505b5050808061079790610e6c565b915050610616565b50565b600160009054906101000a900473ffffffffffffffffffffffffffffffffffffffff1681565b6000600560003373ffffffffffffffffffffffffffffffffffffffff1673ffffffffffffffffffffffffffffffffffffffff1681526020019081526020016000205490506000811161084f576040517f08c379a000000000000000000000000000000000000000000000000000000000815260040161084690610caa565b60405180910390fd5b600360009054906101000a900473ffffffffffffffffffffffffffffffffffffffff1673ffffffffffffffffffffffffffffffffffffffff1663a9059cbb33836040518363ffffffff1660e01b81526004016108ac929190610c0e565b602060405180830381600087803b1580156108c657600080fd5b505af11580156108da573d6000803e3d6000fd5b505050506040513d601f19601f820116820180604052508101906108fe9190610a66565b506000600560003373ffffffffffffffffffffffffffffffffffffffff1673ffffffffffffffffffffffffffffffffffffffff168152602001908152602001600020819055506000600760003373ffffffffffffffffffffffffffffffffffffffff1673ffffffffffffffffffffffffffffffffffffffff16815260200190815260200160002060006101000a81548160ff02191690831515021790555050565b60066020528060005260406000206000915054906101000a900460ff1681565b600481815481106109cf57600080fd5b906000526020600020016000915054906101000a900473ffffffffffffffffffffffffffffffffffffffff1681565b600081359050610a0d81610f24565b92915050565b600081519050610a2281610f3b565b92915050565b600081359050610a3781610f52565b92915050565b600060208284031215610a4f57600080fd5b6000610a5d848285016109fe565b91505092915050565b600060208284031215610a7857600080fd5b6000610a8684828501610a13565b91505092915050565b600060208284031215610aa157600080fd5b6000610aaf84828501610a28565b91505092915050565b610ac181610d77565b82525050565b610ad081610d89565b82525050565b610adf81610dbf565b82525050565b610aee81610de3565b82525050565b6000610aff82610d05565b610b098185610d10565b9350610b19818560208601610e07565b610b2281610f13565b840191505092915050565b6000610b3a601c83610d10565b91507f7374616b696e672062616c616e63652063616e206e6f742062652030000000006000830152602082019050919050565b6000610b7a601283610d10565b91507f616d6f756e742063616e6e6f74206265203000000000000000000000000000006000830152602082019050919050565b610bb681610db5565b82525050565b6000602082019050610bd16000830184610ab8565b92915050565b6000606082019050610bec6000830186610ab8565b610bf96020830185610ab8565b610c066040830184610bad565b949350505050565b6000604082019050610c236000830185610ab8565b610c306020830184610bad565b9392505050565b6000602082019050610c4c6000830184610ac7565b92915050565b6000602082019050610c676000830184610ad6565b92915050565b6000602082019050610c826000830184610ae5565b92915050565b60006020820190508181036000830152610ca28184610af4565b905092915050565b60006020820190508181036000830152610cc381610b2d565b9050919050565b60006020820190508181036000830152610ce381610b6d565b9050919050565b6000602082019050610cff6000830184610bad565b92915050565b600081519050919050565b600082825260208201905092915050565b6000610d2c82610db5565b9150610d3783610db5565b9250827fffffffffffffffffffffffffffffffffffffffffffffffffffffffffffffffff03821115610d6c57610d6b610eb5565b5b828201905092915050565b6000610d8282610d95565b9050919050565b60008115159050919050565b600073ffffffffffffffffffffffffffffffffffffffff82169050919050565b6000819050919050565b6000610dca82610dd1565b9050919050565b6000610ddc82610d95565b9050919050565b6000610dee82610df5565b9050919050565b6000610e0082610d95565b9050919050565b60005b83811015610e25578082015181840152602081019050610e0a565b83811115610e34576000848401525b50505050565b60006002820490506001821680610e5257607f821691505b60208210811415610e6657610e65610ee4565b5b50919050565b6000610e7782610db5565b91507fffffffffffffffffffffffffffffffffffffffffffffffffffffffffffffffff821415610eaa57610ea9610eb5565b5b600182019050919050565b7f4e487b7100000000000000000000000000000000000000000000000000000000600052601160045260246000fd5b7f4e487b7100000000000000000000000000000000000000000000000000000000600052602260045260246000fd5b6000601f19601f8301169050919050565b610f2d81610d77565b8114610f3857600080fd5b50565b610f4481610d89565b8114610f4f57600080fd5b50565b610f5b81610db5565b8114610f6657600080fd5b5056fea264697066735822122029373c9ad84b2594f0445938325d562170ee9f0ca08befae19340cf56d4bc26064736f6c63430008000033",
  "immutableReferences": {},
  "source": "// SPDX-License-Identifier: MIT\r\n\r\npragma solidity ^0.8.0;\r\n\r\nimport \"./SeedToken.sol\";\r\nimport \"./FruitToken.sol\";\r\n\r\ncontract TokenFarm {\r\n    \r\n    // call it DefiBank\r\n    string public name = \"Yield farming app\";\r\n    address public owner;\r\n    // create 2 state variables\r\n    FruitToken public fruitToken;\r\n    SeedToken public seedToken;\r\n\r\n    address[] public stakers;\r\n    mapping(address => uint) public stakingBalance;\r\n    mapping(address => bool) public hasStaked;\r\n    mapping(address => bool) public isStaking;\r\n\r\n    // in constructor pass in the address for USDC token and your custom bank token\r\n    // that will be used to pay interest\r\n    constructor(FruitToken _fruitToken, SeedToken _seedToken) public {\r\n        fruitToken = _fruitToken;\r\n        seedToken = _seedToken;\r\n        owner = msg.sender;\r\n    }\r\n\r\n    // allow user to stake usdc tokens in contract\r\n    \r\n    function stakeTokens(uint _amount) public {\r\n\r\n        require(_amount > 0, \"amount cannot be 0\");\r\n\r\n        // Trasnfer Seed tokens to contract for staking\r\n        seedToken.transferFrom(msg.sender, address(this), _amount);\r\n\r\n        // Update the staking balance in map\r\n        stakingBalance[msg.sender] = stakingBalance[msg.sender] + _amount;\r\n\r\n        // Add user to stakers array if they haven't staked already\r\n        if(!hasStaked[msg.sender]) {\r\n            stakers.push(msg.sender);\r\n        }\r\n\r\n        // Update staking status to track\r\n        isStaking[msg.sender] = true;\r\n        hasStaked[msg.sender] = true;\r\n    }\r\n\r\n        // allow user to unstake total balance and withdraw USDC from the contract\r\n    \r\n     function unstakeTokens() public {\r\n\r\n    \t// get the users staking balance in usdc\r\n    \tuint balance = stakingBalance[msg.sender];\r\n    \r\n        // reqire the amount staked needs to be greater then 0\r\n        require(balance > 0, \"staking balance can not be 0\");\r\n    \r\n        // transfer usdc tokens out of this contract to the msg.sender\r\n        seedToken.transfer(msg.sender, balance);\r\n    \r\n        // reset staking balance map to 0\r\n        stakingBalance[msg.sender] = 0;\r\n    \r\n        // update the staking status\r\n        isStaking[msg.sender] = false;\r\n\r\n} \r\n\r\n\r\n    // Issue bank tokens as a reward for staking\r\n    \r\n    function issueInterestToken() public {\r\n        for (uint i=0; i<stakers.length; i++) {\r\n            address recipient = stakers[i];\r\n            uint balance = stakingBalance[recipient];\r\n            \r\n    // if there is a balance transfer the SAME amount of bank tokens to the account that is staking as a reward\r\n            \r\n            if(balance >0 ) {\r\n                fruitToken.transfer(recipient, balance);\r\n            }\r\n        }\r\n    }\r\n\r\n}\r\n",
  "sourcePath": "C:\\Users\\quang\\Documents\\GitHub\\yield_farming_app\\contracts\\TokenFarm.sol",
  "compiler": {
    "name": "solc",
    "version": "0.8.0+commit.c7dfd78e.Emscripten.clang"
  },
  "schemaVersion": "3.4.2",
  "updatedAt": "2021-08-08T13:34:53.845Z",
  "networkType": "ethereum",
  "devdoc": {
    "kind": "dev",
    "methods": {},
    "version": 1
  },
  "userdoc": {
    "kind": "user",
    "methods": {},
    "version": 1
  }
}