{
  "contractName": "YieldFarm",
  "abi": [
    {
      "inputs": [
        {
          "internalType": "contract FruitToken",
          "name": "_fruitToken",
          "type": "address"
        },
        {
          "internalType": "contract SeedToken",
          "name": "_seedToken",
          "type": "address"
        }
      ],
      "stateMutability": "nonpayable",
      "type": "constructor"
    },
    {
      "inputs": [],
      "name": "fruitToken",
      "outputs": [
        {
          "internalType": "contract FruitToken",
          "name": "",
          "type": "address"
        }
      ],
      "stateMutability": "view",
      "type": "function",
      "constant": true
    },
    {
      "inputs": [],
      "name": "name",
      "outputs": [
        {
          "internalType": "string",
          "name": "",
          "type": "string"
        }
      ],
      "stateMutability": "view",
      "type": "function",
      "constant": true
    },
    {
      "inputs": [],
      "name": "owner",
      "outputs": [
        {
          "internalType": "address",
          "name": "",
          "type": "address"
        }
      ],
      "stateMutability": "view",
      "type": "function",
      "constant": true
    },
    {
      "inputs": [],
      "name": "seedToken",
      "outputs": [
        {
          "internalType": "contract SeedToken",
          "name": "",
          "type": "address"
        }
      ],
      "stateMutability": "view",
      "type": "function",
      "constant": true
    }
  ],
  "bytecode": "0x60806040526040518060400160405280601181526020017f5969656c64206661726d696e67206170700000000000000000000000000000008152506000908051906020019061004f929190610148565b5034801561005c57600080fd5b50604051610758380380610758833981810160405281019061007e9190610215565b81600260006101000a81548173ffffffffffffffffffffffffffffffffffffffff021916908373ffffffffffffffffffffffffffffffffffffffff16021790555080600360006101000a81548173ffffffffffffffffffffffffffffffffffffffff021916908373ffffffffffffffffffffffffffffffffffffffff16021790555033600160006101000a81548173ffffffffffffffffffffffffffffffffffffffff021916908373ffffffffffffffffffffffffffffffffffffffff1602179055505050610336565b828054610154906102a7565b90600052602060002090601f01602090048101928261017657600085556101bd565b82601f1061018f57805160ff19168380011785556101bd565b828001600101855582156101bd579182015b828111156101bc5782518255916020019190600101906101a1565b5b5090506101ca91906101ce565b5090565b5b808211156101e75760008160009055506001016101cf565b5090565b6000815190506101fa81610308565b92915050565b60008151905061020f8161031f565b92915050565b6000806040838503121561022857600080fd5b6000610236858286016101eb565b925050602061024785828601610200565b9150509250929050565b600061025c82610287565b9050919050565b600061026e82610251565b9050919050565b600061028082610251565b9050919050565b600073ffffffffffffffffffffffffffffffffffffffff82169050919050565b600060028204905060018216806102bf57607f821691505b602082108114156102d3576102d26102d9565b5b50919050565b7f4e487b7100000000000000000000000000000000000000000000000000000000600052602260045260246000fd5b61031181610263565b811461031c57600080fd5b50565b61032881610275565b811461033357600080fd5b50565b610413806103456000396000f3fe608060405234801561001057600080fd5b506004361061004c5760003560e01c806306fdde0314610051578063311f84831461006f578063680a9a191461008d5780638da5cb5b146100ab575b600080fd5b6100596100c9565b6040516100669190610280565b60405180910390f35b610077610157565b6040516100849190610265565b60405180910390f35b61009561017d565b6040516100a2919061024a565b60405180910390f35b6100b36101a3565b6040516100c0919061022f565b60405180910390f35b600080546100d69061036b565b80601f01602080910402602001604051908101604052809291908181526020018280546101029061036b565b801561014f5780601f106101245761010080835404028352916020019161014f565b820191906000526020600020905b81548152906001019060200180831161013257829003601f168201915b505050505081565b600360009054906101000a900473ffffffffffffffffffffffffffffffffffffffff1681565b600260009054906101000a900473ffffffffffffffffffffffffffffffffffffffff1681565b600160009054906101000a900473ffffffffffffffffffffffffffffffffffffffff1681565b6101d2816102be565b82525050565b6101e1816102f0565b82525050565b6101f081610314565b82525050565b6000610201826102a2565b61020b81856102ad565b935061021b818560208601610338565b610224816103cc565b840191505092915050565b600060208201905061024460008301846101c9565b92915050565b600060208201905061025f60008301846101d8565b92915050565b600060208201905061027a60008301846101e7565b92915050565b6000602082019050818103600083015261029a81846101f6565b905092915050565b600081519050919050565b600082825260208201905092915050565b60006102c9826102d0565b9050919050565b600073ffffffffffffffffffffffffffffffffffffffff82169050919050565b60006102fb82610302565b9050919050565b600061030d826102d0565b9050919050565b600061031f82610326565b9050919050565b6000610331826102d0565b9050919050565b60005b8381101561035657808201518184015260208101905061033b565b83811115610365576000848401525b50505050565b6000600282049050600182168061038357607f821691505b602082108114156103975761039661039d565b5b50919050565b7f4e487b7100000000000000000000000000000000000000000000000000000000600052602260045260246000fd5b6000601f19601f830116905091905056fea264697066735822122040bdeeacb96b2cf017f9f319327d7027973523b4375e547fe8a64048527632b364736f6c63430008000033",
  "immutableReferences": {},
  "source": "// SPDX-License-Identifier: MIT\r\n\r\npragma solidity ^0.8.0;\r\n\r\nimport \"./SeedToken.sol\";\r\nimport \"./FruitToken.sol\";\r\n\r\ncontract YieldFarm {\r\n    \r\n    // call it DefiBank\r\n    string public name = \"Yield farming app\";\r\n    address public owner;\r\n    // create 2 state variables\r\n    FruitToken public fruitToken;\r\n    SeedToken public seedToken;\r\n\r\n    // address[] public stakers;\r\n    // mapping(address => uint) public stakingBalance;\r\n    // mapping(address => bool) public hasStaked;\r\n    // mapping(address => bool) public isStaking;\r\n\r\n    // in constructor pass in the address for USDC token and your custom bank token\r\n    // that will be used to pay interest\r\n    constructor(FruitToken _fruitToken, SeedToken _seedToken) {\r\n        fruitToken = _fruitToken;\r\n        seedToken = _seedToken;\r\n        owner = msg.sender;\r\n    }\r\n\r\n    // allow user to stake usdc tokens in contract\r\n    \r\n    // function stakeTokens(uint _amount) public {\r\n\r\n    //     require(_amount > 0, \"amount cannot be 0\");\r\n\r\n    //     // Trasnfer Seed tokens to contract for staking\r\n    //     seedToken.transferFrom(msg.sender, address(this), _amount);\r\n\r\n    //     // Update the staking balance in map\r\n    //     stakingBalance[msg.sender] = stakingBalance[msg.sender] + _amount;\r\n\r\n    //     // Add user to stakers array if they haven't staked already\r\n    //     if(!hasStaked[msg.sender]) {\r\n    //         stakers.push(msg.sender);\r\n    //     }\r\n\r\n    //     // Update staking status to track\r\n    //     isStaking[msg.sender] = true;\r\n    //     hasStaked[msg.sender] = true;\r\n    // }\r\n\r\n        // allow user to unstake total balance and withdraw USDC from the contract\r\n    \r\n//      function unstakeTokens() public {\r\n\r\n//     \t// get the users staking balance in usdc\r\n//     \tuint balance = stakingBalance[msg.sender];\r\n    \r\n//         // reqire the amount staked needs to be greater then 0\r\n//         require(balance > 0, \"staking balance can not be 0\");\r\n    \r\n//         // transfer usdc tokens out of this contract to the msg.sender\r\n//         seedToken.transfer(msg.sender, balance);\r\n    \r\n//         // reset staking balance map to 0\r\n//         stakingBalance[msg.sender] = 0;\r\n    \r\n//         // update the staking status\r\n//         isStaking[msg.sender] = false;\r\n\r\n// } \r\n\r\n\r\n    // Issue bank tokens as a reward for staking\r\n    \r\n    // function issueInterestToken() public {\r\n    //     for (uint i=0; i<stakers.length; i++) {\r\n    //         address recipient = stakers[i];\r\n    //         uint balance = stakingBalance[recipient];\r\n            \r\n    // // if there is a balance transfer the SAME amount of bank tokens to the account that is staking as a reward\r\n            \r\n    //         if(balance >0 ) {\r\n    //             fruitToken.transfer(recipient, balance);\r\n    //         }\r\n    //     }\r\n    // }\r\n\r\n}\r\n",
  "sourcePath": "C:\\Users\\quang\\Documents\\GitHub\\yield_farming_app\\contracts\\YieldFarm.sol",
  "compiler": {
    "name": "solc",
    "version": "0.8.0+commit.c7dfd78e.Emscripten.clang"
  },
  "schemaVersion": "3.4.2",
  "updatedAt": "2021-08-14T14:45:46.778Z",
  "networkType": "ethereum",
  "devdoc": {
    "kind": "dev",
    "methods": {},
    "version": 1
  },
  "userdoc": {
    "kind": "user",
    "methods": {},
    "version": 1
  }
}